{
  "contractName": "CampfireNFT",
  "abi": [
    {
      "inputs": [],
      "stateMutability": "nonpayable",
      "type": "constructor"
    },
    {
      "anonymous": false,
      "inputs": [
        {
          "indexed": true,
          "internalType": "address",
          "name": "account",
          "type": "address"
        },
        {
          "indexed": true,
          "internalType": "address",
          "name": "operator",
          "type": "address"
        },
        {
          "indexed": false,
          "internalType": "bool",
          "name": "approved",
          "type": "bool"
        }
      ],
      "name": "ApprovalForAll",
      "type": "event"
    },
    {
      "anonymous": false,
      "inputs": [
        {
          "indexed": true,
          "internalType": "address",
          "name": "previousOwner",
          "type": "address"
        },
        {
          "indexed": true,
          "internalType": "address",
          "name": "newOwner",
          "type": "address"
        }
      ],
      "name": "OwnershipTransferred",
      "type": "event"
    },
    {
      "anonymous": false,
      "inputs": [
        {
          "indexed": true,
          "internalType": "address",
          "name": "operator",
          "type": "address"
        },
        {
          "indexed": true,
          "internalType": "address",
          "name": "from",
          "type": "address"
        },
        {
          "indexed": true,
          "internalType": "address",
          "name": "to",
          "type": "address"
        },
        {
          "indexed": false,
          "internalType": "uint256[]",
          "name": "ids",
          "type": "uint256[]"
        },
        {
          "indexed": false,
          "internalType": "uint256[]",
          "name": "values",
          "type": "uint256[]"
        }
      ],
      "name": "TransferBatch",
      "type": "event"
    },
    {
      "anonymous": false,
      "inputs": [
        {
          "indexed": true,
          "internalType": "address",
          "name": "operator",
          "type": "address"
        },
        {
          "indexed": true,
          "internalType": "address",
          "name": "from",
          "type": "address"
        },
        {
          "indexed": true,
          "internalType": "address",
          "name": "to",
          "type": "address"
        },
        {
          "indexed": false,
          "internalType": "uint256",
          "name": "id",
          "type": "uint256"
        },
        {
          "indexed": false,
          "internalType": "uint256",
          "name": "value",
          "type": "uint256"
        }
      ],
      "name": "TransferSingle",
      "type": "event"
    },
    {
      "anonymous": false,
      "inputs": [
        {
          "indexed": false,
          "internalType": "string",
          "name": "value",
          "type": "string"
        },
        {
          "indexed": true,
          "internalType": "uint256",
          "name": "id",
          "type": "uint256"
        }
      ],
      "name": "URI",
      "type": "event"
    },
    {
      "inputs": [],
      "name": "BRANCH",
      "outputs": [
        {
          "internalType": "uint256",
          "name": "",
          "type": "uint256"
        }
      ],
      "stateMutability": "view",
      "type": "function",
      "constant": true
    },
    {
      "inputs": [
        {
          "internalType": "address",
          "name": "account",
          "type": "address"
        },
        {
          "internalType": "uint256",
          "name": "id",
          "type": "uint256"
        }
      ],
      "name": "balanceOf",
      "outputs": [
        {
          "internalType": "uint256",
          "name": "",
          "type": "uint256"
        }
      ],
      "stateMutability": "view",
      "type": "function",
      "constant": true
    },
    {
      "inputs": [
        {
          "internalType": "address[]",
          "name": "accounts",
          "type": "address[]"
        },
        {
          "internalType": "uint256[]",
          "name": "ids",
          "type": "uint256[]"
        }
      ],
      "name": "balanceOfBatch",
      "outputs": [
        {
          "internalType": "uint256[]",
          "name": "",
          "type": "uint256[]"
        }
      ],
      "stateMutability": "view",
      "type": "function",
      "constant": true
    },
    {
      "inputs": [
        {
          "internalType": "address",
          "name": "account",
          "type": "address"
        },
        {
          "internalType": "address",
          "name": "operator",
          "type": "address"
        }
      ],
      "name": "isApprovedForAll",
      "outputs": [
        {
          "internalType": "bool",
          "name": "",
          "type": "bool"
        }
      ],
      "stateMutability": "view",
      "type": "function",
      "constant": true
    },
    {
      "inputs": [],
      "name": "owner",
      "outputs": [
        {
          "internalType": "address",
          "name": "",
          "type": "address"
        }
      ],
      "stateMutability": "view",
      "type": "function",
      "constant": true
    },
    {
      "inputs": [],
      "name": "renounceOwnership",
      "outputs": [],
      "stateMutability": "nonpayable",
      "type": "function"
    },
    {
      "inputs": [
        {
          "internalType": "address",
          "name": "from",
          "type": "address"
        },
        {
          "internalType": "address",
          "name": "to",
          "type": "address"
        },
        {
          "internalType": "uint256[]",
          "name": "ids",
          "type": "uint256[]"
        },
        {
          "internalType": "uint256[]",
          "name": "amounts",
          "type": "uint256[]"
        },
        {
          "internalType": "bytes",
          "name": "data",
          "type": "bytes"
        }
      ],
      "name": "safeBatchTransferFrom",
      "outputs": [],
      "stateMutability": "nonpayable",
      "type": "function"
    },
    {
      "inputs": [
        {
          "internalType": "address",
          "name": "from",
          "type": "address"
        },
        {
          "internalType": "address",
          "name": "to",
          "type": "address"
        },
        {
          "internalType": "uint256",
          "name": "id",
          "type": "uint256"
        },
        {
          "internalType": "uint256",
          "name": "amount",
          "type": "uint256"
        },
        {
          "internalType": "bytes",
          "name": "data",
          "type": "bytes"
        }
      ],
      "name": "safeTransferFrom",
      "outputs": [],
      "stateMutability": "nonpayable",
      "type": "function"
    },
    {
      "inputs": [
        {
          "internalType": "address",
          "name": "operator",
          "type": "address"
        },
        {
          "internalType": "bool",
          "name": "approved",
          "type": "bool"
        }
      ],
      "name": "setApprovalForAll",
      "outputs": [],
      "stateMutability": "nonpayable",
      "type": "function"
    },
    {
      "inputs": [
        {
          "internalType": "bytes4",
          "name": "interfaceId",
          "type": "bytes4"
        }
      ],
      "name": "supportsInterface",
      "outputs": [
        {
          "internalType": "bool",
          "name": "",
          "type": "bool"
        }
      ],
      "stateMutability": "view",
      "type": "function",
      "constant": true
    },
    {
      "inputs": [
        {
          "internalType": "address",
          "name": "newOwner",
          "type": "address"
        }
      ],
      "name": "transferOwnership",
      "outputs": [],
      "stateMutability": "nonpayable",
      "type": "function"
    },
    {
      "inputs": [
        {
          "internalType": "uint256",
          "name": "",
          "type": "uint256"
        }
      ],
      "name": "uri",
      "outputs": [
        {
          "internalType": "string",
          "name": "",
          "type": "string"
        }
      ],
      "stateMutability": "view",
      "type": "function",
      "constant": true
    },
    {
      "inputs": [
        {
          "internalType": "address",
          "name": "account",
          "type": "address"
        }
      ],
      "name": "mintBranch",
      "outputs": [],
      "stateMutability": "nonpayable",
      "type": "function"
    },
    {
      "inputs": [
        {
          "internalType": "address",
          "name": "account",
          "type": "address"
        },
        {
          "internalType": "uint256",
          "name": "id",
          "type": "uint256"
        },
        {
          "internalType": "uint256",
          "name": "amount",
          "type": "uint256"
        }
      ],
      "name": "burn",
      "outputs": [],
      "stateMutability": "nonpayable",
      "type": "function"
    },
    {
      "inputs": [
        {
          "internalType": "uint256",
          "name": "tokenId",
          "type": "uint256"
        }
      ],
      "name": "totalSupply",
      "outputs": [
        {
          "internalType": "uint256",
          "name": "",
          "type": "uint256"
        }
      ],
      "stateMutability": "view",
      "type": "function",
      "constant": true
    },
    {
      "inputs": [],
      "name": "name",
      "outputs": [
        {
          "internalType": "string",
          "name": "",
          "type": "string"
        }
      ],
      "stateMutability": "pure",
      "type": "function",
      "constant": true
    },
    {
      "inputs": [],
      "name": "symbol",
      "outputs": [
        {
          "internalType": "string",
          "name": "",
          "type": "string"
        }
      ],
      "stateMutability": "pure",
      "type": "function",
      "constant": true
    }
  ],
  "bytecode": "0x60806040523480156200001157600080fd5b506040518060800160405280604381526020016200349f604391396200004c620000406200006460201b60201c565b6200006c60201b60201c565b6200005d816200013060201b60201c565b5062000261565b600033905090565b60008060009054906101000a900473ffffffffffffffffffffffffffffffffffffffff169050816000806101000a81548173ffffffffffffffffffffffffffffffffffffffff021916908373ffffffffffffffffffffffffffffffffffffffff1602179055508173ffffffffffffffffffffffffffffffffffffffff168173ffffffffffffffffffffffffffffffffffffffff167f8be0079c531659141344cd1fd0a4f28419497f9722a3daafe3b4186f6b6457e060405160405180910390a35050565b8060039080519060200190620001489291906200014c565b5050565b8280546200015a906200022b565b90600052602060002090601f0160209004810192826200017e5760008555620001ca565b82601f106200019957805160ff1916838001178555620001ca565b82800160010185558215620001ca579182015b82811115620001c9578251825591602001919060010190620001ac565b5b509050620001d99190620001dd565b5090565b5b80821115620001f8576000816000905550600101620001de565b5090565b7f4e487b7100000000000000000000000000000000000000000000000000000000600052602260045260246000fd5b600060028204905060018216806200024457607f821691505b602082108114156200025b576200025a620001fc565b5b50919050565b61322e80620002716000396000f3fe608060405234801561001057600080fd5b506004361061010a5760003560e01c80638da5cb5b116100a2578063d41ebbd011610071578063d41ebbd0146102b9578063e985e9c5146102d5578063f242432a14610305578063f2fde38b14610321578063f5298aca1461033d5761010a565b80638da5cb5b1461023157806395d89b411461024f578063a22cb4651461026d578063bd85b039146102895761010a565b80632eb2c2d6116100de5780632eb2c2d6146101bd5780634e1273f4146101d9578063715018a61461020957806381e71ef7146102135761010a565b8062fdd58e1461010f57806301ffc9a71461013f57806306fdde031461016f5780630e89341c1461018d575b600080fd5b61012960048036038101906101249190611c9f565b610359565b6040516101369190611cee565b60405180910390f35b61015960048036038101906101549190611d61565b610423565b6040516101669190611da9565b60405180910390f35b610177610505565b6040516101849190611e5d565b60405180910390f35b6101a760048036038101906101a29190611e7f565b610542565b6040516101b49190611e5d565b60405180910390f35b6101d760048036038101906101d291906120a9565b6105d6565b005b6101f360048036038101906101ee919061223b565b610677565b6040516102009190612371565b60405180910390f35b610211610790565b005b61021b610818565b6040516102289190611cee565b60405180910390f35b61023961081d565b60405161024691906123a2565b60405180910390f35b610257610846565b6040516102649190611e5d565b60405180910390f35b610287600480360381019061028291906123e9565b610883565b005b6102a3600480360381019061029e9190611e7f565b610a04565b6040516102b09190611cee565b60405180910390f35b6102d360048036038101906102ce9190612429565b610a21565b005b6102ef60048036038101906102ea9190612456565b610a6c565b6040516102fc9190611da9565b60405180910390f35b61031f600480360381019061031a9190612496565b610b00565b005b61033b60048036038101906103369190612429565b610ba1565b005b6103576004803603810190610352919061252d565b610c99565b005b60008073ffffffffffffffffffffffffffffffffffffffff168373ffffffffffffffffffffffffffffffffffffffff1614156103ca576040517f08c379a00000000000000000000000000000000000000000000000000000000081526004016103c1906125f2565b60405180910390fd5b6001600083815260200190815260200160002060008473ffffffffffffffffffffffffffffffffffffffff1673ffffffffffffffffffffffffffffffffffffffff16815260200190815260200160002054905092915050565b60007fd9b67a26000000000000000000000000000000000000000000000000000000007bffffffffffffffffffffffffffffffffffffffffffffffffffffffff1916827bffffffffffffffffffffffffffffffffffffffffffffffffffffffff191614806104ee57507f0e89341c000000000000000000000000000000000000000000000000000000007bffffffffffffffffffffffffffffffffffffffffffffffffffffffff1916827bffffffffffffffffffffffffffffffffffffffffffffffffffffffff1916145b806104fe57506104fd82610d0c565b5b9050919050565b60606040518060400160405280600b81526020017f43616d70666972654e4654000000000000000000000000000000000000000000815250905090565b60606003805461055190612641565b80601f016020809104026020016040519081016040528092919081815260200182805461057d90612641565b80156105ca5780601f1061059f576101008083540402835291602001916105ca565b820191906000526020600020905b8154815290600101906020018083116105ad57829003601f168201915b50505050509050919050565b6105de610d76565b73ffffffffffffffffffffffffffffffffffffffff168573ffffffffffffffffffffffffffffffffffffffff16148061062457506106238561061e610d76565b610a6c565b5b610663576040517f08c379a000000000000000000000000000000000000000000000000000000000815260040161065a906126e5565b60405180910390fd5b6106708585858585610d7e565b5050505050565b606081518351146106bd576040517f08c379a00000000000000000000000000000000000000000000000000000000081526004016106b490612777565b60405180910390fd5b6000835167ffffffffffffffff8111156106da576106d9611eb1565b5b6040519080825280602002602001820160405280156107085781602001602082028036833780820191505090505b50905060005b84518110156107855761075585828151811061072d5761072c612797565b5b602002602001015185838151811061074857610747612797565b5b6020026020010151610359565b82828151811061076857610767612797565b5b6020026020010181815250508061077e906127f5565b905061070e565b508091505092915050565b610798610d76565b73ffffffffffffffffffffffffffffffffffffffff166107b661081d565b73ffffffffffffffffffffffffffffffffffffffff161461080c576040517f08c379a00000000000000000000000000000000000000000000000000000000081526004016108039061288a565b60405180910390fd5b6108166000611095565b565b600081565b60008060009054906101000a900473ffffffffffffffffffffffffffffffffffffffff16905090565b60606040518060400160405280600781526020017f43414d504e465400000000000000000000000000000000000000000000000000815250905090565b8173ffffffffffffffffffffffffffffffffffffffff166108a2610d76565b73ffffffffffffffffffffffffffffffffffffffff1614156108f9576040517f08c379a00000000000000000000000000000000000000000000000000000000081526004016108f09061291c565b60405180910390fd5b8060026000610906610d76565b73ffffffffffffffffffffffffffffffffffffffff1673ffffffffffffffffffffffffffffffffffffffff16815260200190815260200160002060008473ffffffffffffffffffffffffffffffffffffffff1673ffffffffffffffffffffffffffffffffffffffff16815260200190815260200160002060006101000a81548160ff0219169083151502179055508173ffffffffffffffffffffffffffffffffffffffff166109b3610d76565b73ffffffffffffffffffffffffffffffffffffffff167f17307eab39ab6107e8899845ad3d59bd9653f200f220920489ca2b5937696c31836040516109f89190611da9565b60405180910390a35050565b600060046000838152602001908152602001600020549050919050565b610a3e816000600160405180602001604052806000815250611159565b6001600460008081526020019081526020016000206000828254610a62919061293c565b9250508190555050565b6000600260008473ffffffffffffffffffffffffffffffffffffffff1673ffffffffffffffffffffffffffffffffffffffff16815260200190815260200160002060008373ffffffffffffffffffffffffffffffffffffffff1673ffffffffffffffffffffffffffffffffffffffff16815260200190815260200160002060009054906101000a900460ff16905092915050565b610b08610d76565b73ffffffffffffffffffffffffffffffffffffffff168573ffffffffffffffffffffffffffffffffffffffff161480610b4e5750610b4d85610b48610d76565b610a6c565b5b610b8d576040517f08c379a0000000000000000000000000000000000000000000000000000000008152600401610b8490612a04565b60405180910390fd5b610b9a85858585856112f0565b5050505050565b610ba9610d76565b73ffffffffffffffffffffffffffffffffffffffff16610bc761081d565b73ffffffffffffffffffffffffffffffffffffffff1614610c1d576040517f08c379a0000000000000000000000000000000000000000000000000000000008152600401610c149061288a565b60405180910390fd5b600073ffffffffffffffffffffffffffffffffffffffff168173ffffffffffffffffffffffffffffffffffffffff161415610c8d576040517f08c379a0000000000000000000000000000000000000000000000000000000008152600401610c8490612a96565b60405180910390fd5b610c9681611095565b50565b8273ffffffffffffffffffffffffffffffffffffffff163373ffffffffffffffffffffffffffffffffffffffff1614610cd157600080fd5b610cdc838383611575565b6001600460008081526020019081526020016000206000828254610d009190612ab6565b92505081905550505050565b60007f01ffc9a7000000000000000000000000000000000000000000000000000000007bffffffffffffffffffffffffffffffffffffffffffffffffffffffff1916827bffffffffffffffffffffffffffffffffffffffffffffffffffffffff1916149050919050565b600033905090565b8151835114610dc2576040517f08c379a0000000000000000000000000000000000000000000000000000000008152600401610db990612b5c565b60405180910390fd5b600073ffffffffffffffffffffffffffffffffffffffff168473ffffffffffffffffffffffffffffffffffffffff161415610e32576040517f08c379a0000000000000000000000000000000000000000000000000000000008152600401610e2990612bee565b60405180910390fd5b6000610e3c610d76565b9050610e4c818787878787611794565b60005b8451811015611000576000858281518110610e6d57610e6c612797565b5b602002602001015190506000858381518110610e8c57610e8b612797565b5b6020026020010151905060006001600084815260200190815260200160002060008b73ffffffffffffffffffffffffffffffffffffffff1673ffffffffffffffffffffffffffffffffffffffff16815260200190815260200160002054905081811015610f2e576040517f08c379a0000000000000000000000000000000000000000000000000000000008152600401610f2590612c80565b60405180910390fd5b8181036001600085815260200190815260200160002060008c73ffffffffffffffffffffffffffffffffffffffff1673ffffffffffffffffffffffffffffffffffffffff16815260200190815260200160002081905550816001600085815260200190815260200160002060008b73ffffffffffffffffffffffffffffffffffffffff1673ffffffffffffffffffffffffffffffffffffffff1681526020019081526020016000206000828254610fe5919061293c565b9250508190555050505080610ff9906127f5565b9050610e4f565b508473ffffffffffffffffffffffffffffffffffffffff168673ffffffffffffffffffffffffffffffffffffffff168273ffffffffffffffffffffffffffffffffffffffff167f4a39dc06d4c0dbc64b70af90fd698a233a518aa5d07e595d983b8c0526c8f7fb8787604051611077929190612ca0565b60405180910390a461108d81878787878761179c565b505050505050565b60008060009054906101000a900473ffffffffffffffffffffffffffffffffffffffff169050816000806101000a81548173ffffffffffffffffffffffffffffffffffffffff021916908373ffffffffffffffffffffffffffffffffffffffff1602179055508173ffffffffffffffffffffffffffffffffffffffff168173ffffffffffffffffffffffffffffffffffffffff167f8be0079c531659141344cd1fd0a4f28419497f9722a3daafe3b4186f6b6457e060405160405180910390a35050565b600073ffffffffffffffffffffffffffffffffffffffff168473ffffffffffffffffffffffffffffffffffffffff1614156111c9576040517f08c379a00000000000000000000000000000000000000000000000000000000081526004016111c090612d49565b60405180910390fd5b60006111d3610d76565b90506111f4816000876111e588611983565b6111ee88611983565b87611794565b826001600086815260200190815260200160002060008773ffffffffffffffffffffffffffffffffffffffff1673ffffffffffffffffffffffffffffffffffffffff1681526020019081526020016000206000828254611254919061293c565b925050819055508473ffffffffffffffffffffffffffffffffffffffff16600073ffffffffffffffffffffffffffffffffffffffff168273ffffffffffffffffffffffffffffffffffffffff167fc3d58168c5ae7397731d063d5bbf3d657854427343f4c083240f7aacaa2d0f6287876040516112d2929190612d69565b60405180910390a46112e9816000878787876119fd565b5050505050565b600073ffffffffffffffffffffffffffffffffffffffff168473ffffffffffffffffffffffffffffffffffffffff161415611360576040517f08c379a000000000000000000000000000000000000000000000000000000000815260040161135790612bee565b60405180910390fd5b600061136a610d76565b905061138a81878761137b88611983565b61138488611983565b87611794565b60006001600086815260200190815260200160002060008873ffffffffffffffffffffffffffffffffffffffff1673ffffffffffffffffffffffffffffffffffffffff16815260200190815260200160002054905083811015611422576040517f08c379a000000000000000000000000000000000000000000000000000000000815260040161141990612c80565b60405180910390fd5b8381036001600087815260200190815260200160002060008973ffffffffffffffffffffffffffffffffffffffff1673ffffffffffffffffffffffffffffffffffffffff16815260200190815260200160002081905550836001600087815260200190815260200160002060008873ffffffffffffffffffffffffffffffffffffffff1673ffffffffffffffffffffffffffffffffffffffff16815260200190815260200160002060008282546114d9919061293c565b925050819055508573ffffffffffffffffffffffffffffffffffffffff168773ffffffffffffffffffffffffffffffffffffffff168373ffffffffffffffffffffffffffffffffffffffff167fc3d58168c5ae7397731d063d5bbf3d657854427343f4c083240f7aacaa2d0f628888604051611556929190612d69565b60405180910390a461156c8288888888886119fd565b50505050505050565b600073ffffffffffffffffffffffffffffffffffffffff168373ffffffffffffffffffffffffffffffffffffffff1614156115e5576040517f08c379a00000000000000000000000000000000000000000000000000000000081526004016115dc90612e04565b60405180910390fd5b60006115ef610d76565b905061161f8185600061160187611983565b61160a87611983565b60405180602001604052806000815250611794565b60006001600085815260200190815260200160002060008673ffffffffffffffffffffffffffffffffffffffff1673ffffffffffffffffffffffffffffffffffffffff168152602001908152602001600020549050828110156116b7576040517f08c379a00000000000000000000000000000000000000000000000000000000081526004016116ae90612e96565b60405180910390fd5b8281036001600086815260200190815260200160002060008773ffffffffffffffffffffffffffffffffffffffff1673ffffffffffffffffffffffffffffffffffffffff16815260200190815260200160002081905550600073ffffffffffffffffffffffffffffffffffffffff168573ffffffffffffffffffffffffffffffffffffffff168373ffffffffffffffffffffffffffffffffffffffff167fc3d58168c5ae7397731d063d5bbf3d657854427343f4c083240f7aacaa2d0f628787604051611785929190612d69565b60405180910390a45050505050565b505050505050565b6117bb8473ffffffffffffffffffffffffffffffffffffffff16611be4565b1561197b578373ffffffffffffffffffffffffffffffffffffffff1663bc197c8187878686866040518663ffffffff1660e01b8152600401611801959493929190612f0b565b602060405180830381600087803b15801561181b57600080fd5b505af192505050801561184c57506040513d601f19601f820116820180604052508101906118499190612f88565b60015b6118f257611858612fc2565b806308c379a014156118b5575061186d612fe4565b8061187857506118b7565b806040517f08c379a00000000000000000000000000000000000000000000000000000000081526004016118ac9190611e5d565b60405180910390fd5b505b6040517f08c379a00000000000000000000000000000000000000000000000000000000081526004016118e9906130ec565b60405180910390fd5b63bc197c8160e01b7bffffffffffffffffffffffffffffffffffffffffffffffffffffffff1916817bffffffffffffffffffffffffffffffffffffffffffffffffffffffff191614611979576040517f08c379a00000000000000000000000000000000000000000000000000000000081526004016119709061317e565b60405180910390fd5b505b505050505050565b60606000600167ffffffffffffffff8111156119a2576119a1611eb1565b5b6040519080825280602002602001820160405280156119d05781602001602082028036833780820191505090505b50905082816000815181106119e8576119e7612797565b5b60200260200101818152505080915050919050565b611a1c8473ffffffffffffffffffffffffffffffffffffffff16611be4565b15611bdc578373ffffffffffffffffffffffffffffffffffffffff1663f23a6e6187878686866040518663ffffffff1660e01b8152600401611a6295949392919061319e565b602060405180830381600087803b158015611a7c57600080fd5b505af1925050508015611aad57506040513d601f19601f82011682018060405250810190611aaa9190612f88565b60015b611b5357611ab9612fc2565b806308c379a01415611b165750611ace612fe4565b80611ad95750611b18565b806040517f08c379a0000000000000000000000000000000000000000000000000000000008152600401611b0d9190611e5d565b60405180910390fd5b505b6040517f08c379a0000000000000000000000000000000000000000000000000000000008152600401611b4a906130ec565b60405180910390fd5b63f23a6e6160e01b7bffffffffffffffffffffffffffffffffffffffffffffffffffffffff1916817bffffffffffffffffffffffffffffffffffffffffffffffffffffffff191614611bda576040517f08c379a0000000000000000000000000000000000000000000000000000000008152600401611bd19061317e565b60405180910390fd5b505b505050505050565b600080823b905060008111915050919050565b6000604051905090565b600080fd5b600080fd5b600073ffffffffffffffffffffffffffffffffffffffff82169050919050565b6000611c3682611c0b565b9050919050565b611c4681611c2b565b8114611c5157600080fd5b50565b600081359050611c6381611c3d565b92915050565b6000819050919050565b611c7c81611c69565b8114611c8757600080fd5b50565b600081359050611c9981611c73565b92915050565b60008060408385031215611cb657611cb5611c01565b5b6000611cc485828601611c54565b9250506020611cd585828601611c8a565b9150509250929050565b611ce881611c69565b82525050565b6000602082019050611d036000830184611cdf565b92915050565b60007fffffffff0000000000000000000000000000000000000000000000000000000082169050919050565b611d3e81611d09565b8114611d4957600080fd5b50565b600081359050611d5b81611d35565b92915050565b600060208284031215611d7757611d76611c01565b5b6000611d8584828501611d4c565b91505092915050565b60008115159050919050565b611da381611d8e565b82525050565b6000602082019050611dbe6000830184611d9a565b92915050565b600081519050919050565b600082825260208201905092915050565b60005b83811015611dfe578082015181840152602081019050611de3565b83811115611e0d576000848401525b50505050565b6000601f19601f8301169050919050565b6000611e2f82611dc4565b611e398185611dcf565b9350611e49818560208601611de0565b611e5281611e13565b840191505092915050565b60006020820190508181036000830152611e778184611e24565b905092915050565b600060208284031215611e9557611e94611c01565b5b6000611ea384828501611c8a565b91505092915050565b600080fd5b7f4e487b7100000000000000000000000000000000000000000000000000000000600052604160045260246000fd5b611ee982611e13565b810181811067ffffffffffffffff82111715611f0857611f07611eb1565b5b80604052505050565b6000611f1b611bf7565b9050611f278282611ee0565b919050565b600067ffffffffffffffff821115611f4757611f46611eb1565b5b602082029050602081019050919050565b600080fd5b6000611f70611f6b84611f2c565b611f11565b90508083825260208201905060208402830185811115611f9357611f92611f58565b5b835b81811015611fbc5780611fa88882611c8a565b845260208401935050602081019050611f95565b5050509392505050565b600082601f830112611fdb57611fda611eac565b5b8135611feb848260208601611f5d565b91505092915050565b600080fd5b600067ffffffffffffffff82111561201457612013611eb1565b5b61201d82611e13565b9050602081019050919050565b82818337600083830152505050565b600061204c61204784611ff9565b611f11565b90508281526020810184848401111561206857612067611ff4565b5b61207384828561202a565b509392505050565b600082601f8301126120905761208f611eac565b5b81356120a0848260208601612039565b91505092915050565b600080600080600060a086880312156120c5576120c4611c01565b5b60006120d388828901611c54565b95505060206120e488828901611c54565b945050604086013567ffffffffffffffff81111561210557612104611c06565b5b61211188828901611fc6565b935050606086013567ffffffffffffffff81111561213257612131611c06565b5b61213e88828901611fc6565b925050608086013567ffffffffffffffff81111561215f5761215e611c06565b5b61216b8882890161207b565b9150509295509295909350565b600067ffffffffffffffff82111561219357612192611eb1565b5b602082029050602081019050919050565b60006121b76121b284612178565b611f11565b905080838252602082019050602084028301858111156121da576121d9611f58565b5b835b8181101561220357806121ef8882611c54565b8452602084019350506020810190506121dc565b5050509392505050565b600082601f83011261222257612221611eac565b5b81356122328482602086016121a4565b91505092915050565b6000806040838503121561225257612251611c01565b5b600083013567ffffffffffffffff8111156122705761226f611c06565b5b61227c8582860161220d565b925050602083013567ffffffffffffffff81111561229d5761229c611c06565b5b6122a985828601611fc6565b9150509250929050565b600081519050919050565b600082825260208201905092915050565b6000819050602082019050919050565b6122e881611c69565b82525050565b60006122fa83836122df565b60208301905092915050565b6000602082019050919050565b600061231e826122b3565b61232881856122be565b9350612333836122cf565b8060005b8381101561236457815161234b88826122ee565b975061235683612306565b925050600181019050612337565b5085935050505092915050565b6000602082019050818103600083015261238b8184612313565b905092915050565b61239c81611c2b565b82525050565b60006020820190506123b76000830184612393565b92915050565b6123c681611d8e565b81146123d157600080fd5b50565b6000813590506123e3816123bd565b92915050565b60008060408385031215612400576123ff611c01565b5b600061240e85828601611c54565b925050602061241f858286016123d4565b9150509250929050565b60006020828403121561243f5761243e611c01565b5b600061244d84828501611c54565b91505092915050565b6000806040838503121561246d5761246c611c01565b5b600061247b85828601611c54565b925050602061248c85828601611c54565b9150509250929050565b600080600080600060a086880312156124b2576124b1611c01565b5b60006124c088828901611c54565b95505060206124d188828901611c54565b94505060406124e288828901611c8a565b93505060606124f388828901611c8a565b925050608086013567ffffffffffffffff81111561251457612513611c06565b5b6125208882890161207b565b9150509295509295909350565b60008060006060848603121561254657612545611c01565b5b600061255486828701611c54565b935050602061256586828701611c8a565b925050604061257686828701611c8a565b9150509250925092565b7f455243313135353a2062616c616e636520717565727920666f7220746865207a60008201527f65726f2061646472657373000000000000000000000000000000000000000000602082015250565b60006125dc602b83611dcf565b91506125e782612580565b604082019050919050565b6000602082019050818103600083015261260b816125cf565b9050919050565b7f4e487b7100000000000000000000000000000000000000000000000000000000600052602260045260246000fd5b6000600282049050600182168061265957607f821691505b6020821081141561266d5761266c612612565b5b50919050565b7f455243313135353a207472616e736665722063616c6c6572206973206e6f742060008201527f6f776e6572206e6f7220617070726f7665640000000000000000000000000000602082015250565b60006126cf603283611dcf565b91506126da82612673565b604082019050919050565b600060208201905081810360008301526126fe816126c2565b9050919050565b7f455243313135353a206163636f756e747320616e6420696473206c656e67746860008201527f206d69736d617463680000000000000000000000000000000000000000000000602082015250565b6000612761602983611dcf565b915061276c82612705565b604082019050919050565b6000602082019050818103600083015261279081612754565b9050919050565b7f4e487b7100000000000000000000000000000000000000000000000000000000600052603260045260246000fd5b7f4e487b7100000000000000000000000000000000000000000000000000000000600052601160045260246000fd5b600061280082611c69565b91507fffffffffffffffffffffffffffffffffffffffffffffffffffffffffffffffff821415612833576128326127c6565b5b600182019050919050565b7f4f776e61626c653a2063616c6c6572206973206e6f7420746865206f776e6572600082015250565b6000612874602083611dcf565b915061287f8261283e565b602082019050919050565b600060208201905081810360008301526128a381612867565b9050919050565b7f455243313135353a2073657474696e6720617070726f76616c2073746174757360008201527f20666f722073656c660000000000000000000000000000000000000000000000602082015250565b6000612906602983611dcf565b9150612911826128aa565b604082019050919050565b60006020820190508181036000830152612935816128f9565b9050919050565b600061294782611c69565b915061295283611c69565b9250827fffffffffffffffffffffffffffffffffffffffffffffffffffffffffffffffff03821115612987576129866127c6565b5b828201905092915050565b7f455243313135353a2063616c6c6572206973206e6f74206f776e6572206e6f7260008201527f20617070726f7665640000000000000000000000000000000000000000000000602082015250565b60006129ee602983611dcf565b91506129f982612992565b604082019050919050565b60006020820190508181036000830152612a1d816129e1565b9050919050565b7f4f776e61626c653a206e6577206f776e657220697320746865207a65726f206160008201527f6464726573730000000000000000000000000000000000000000000000000000602082015250565b6000612a80602683611dcf565b9150612a8b82612a24565b604082019050919050565b60006020820190508181036000830152612aaf81612a73565b9050919050565b6000612ac182611c69565b9150612acc83611c69565b925082821015612adf57612ade6127c6565b5b828203905092915050565b7f455243313135353a2069647320616e6420616d6f756e7473206c656e6774682060008201527f6d69736d61746368000000000000000000000000000000000000000000000000602082015250565b6000612b46602883611dcf565b9150612b5182612aea565b604082019050919050565b60006020820190508181036000830152612b7581612b39565b9050919050565b7f455243313135353a207472616e7366657220746f20746865207a65726f20616460008201527f6472657373000000000000000000000000000000000000000000000000000000602082015250565b6000612bd8602583611dcf565b9150612be382612b7c565b604082019050919050565b60006020820190508181036000830152612c0781612bcb565b9050919050565b7f455243313135353a20696e73756666696369656e742062616c616e636520666f60008201527f72207472616e7366657200000000000000000000000000000000000000000000602082015250565b6000612c6a602a83611dcf565b9150612c7582612c0e565b604082019050919050565b60006020820190508181036000830152612c9981612c5d565b9050919050565b60006040820190508181036000830152612cba8185612313565b90508181036020830152612cce8184612313565b90509392505050565b7f455243313135353a206d696e7420746f20746865207a65726f2061646472657360008201527f7300000000000000000000000000000000000000000000000000000000000000602082015250565b6000612d33602183611dcf565b9150612d3e82612cd7565b604082019050919050565b60006020820190508181036000830152612d6281612d26565b9050919050565b6000604082019050612d7e6000830185611cdf565b612d8b6020830184611cdf565b9392505050565b7f455243313135353a206275726e2066726f6d20746865207a65726f206164647260008201527f6573730000000000000000000000000000000000000000000000000000000000602082015250565b6000612dee602383611dcf565b9150612df982612d92565b604082019050919050565b60006020820190508181036000830152612e1d81612de1565b9050919050565b7f455243313135353a206275726e20616d6f756e7420657863656564732062616c60008201527f616e636500000000000000000000000000000000000000000000000000000000602082015250565b6000612e80602483611dcf565b9150612e8b82612e24565b604082019050919050565b60006020820190508181036000830152612eaf81612e73565b9050919050565b600081519050919050565b600082825260208201905092915050565b6000612edd82612eb6565b612ee78185612ec1565b9350612ef7818560208601611de0565b612f0081611e13565b840191505092915050565b600060a082019050612f206000830188612393565b612f2d6020830187612393565b8181036040830152612f3f8186612313565b90508181036060830152612f538185612313565b90508181036080830152612f678184612ed2565b90509695505050505050565b600081519050612f8281611d35565b92915050565b600060208284031215612f9e57612f9d611c01565b5b6000612fac84828501612f73565b91505092915050565b60008160e01c9050919050565b600060033d1115612fe15760046000803e612fde600051612fb5565b90505b90565b600060443d1015612ff457613077565b612ffc611bf7565b60043d036004823e80513d602482011167ffffffffffffffff82111715613024575050613077565b808201805167ffffffffffffffff8111156130425750505050613077565b80602083010160043d03850181111561305f575050505050613077565b61306e82602001850186611ee0565b82955050505050505b90565b7f455243313135353a207472616e7366657220746f206e6f6e204552433131353560008201527f526563656976657220696d706c656d656e746572000000000000000000000000602082015250565b60006130d6603483611dcf565b91506130e18261307a565b604082019050919050565b60006020820190508181036000830152613105816130c9565b9050919050565b7f455243313135353a204552433131353552656365697665722072656a6563746560008201527f6420746f6b656e73000000000000000000000000000000000000000000000000602082015250565b6000613168602883611dcf565b91506131738261310c565b604082019050919050565b600060208201905081810360008301526131978161315b565b9050919050565b600060a0820190506131b36000830188612393565b6131c06020830187612393565b6131cd6040830186611cdf565b6131da6060830185611cdf565b81810360808301526131ec8184612ed2565b9050969550505050505056fea2646970667358221220eb467aee7d0728b0d174458d3b1efe007840c9c58fbc50dd6c12e3a392e225c964736f6c6343000809003368747470733a2f2f63616d70666972652d6e66742e667261312e6469676974616c6f6365616e7370616365732e636f6d2f6d657461646174612f7b69647d2e6a736f6e",
  "immutableReferences": {},
  "source": "//SPDX-License-Identifier: UNLICENSED\npragma solidity ^0.8.7;\n\nimport \"../node_modules/@openzeppelin/contracts/token/ERC1155/ERC1155.sol\";\nimport \"../node_modules/@openzeppelin/contracts/access/Ownable.sol\";\n\ncontract CampfireNFT is Ownable, ERC1155 {\n    uint256 public constant BRANCH = 0;\n\n    mapping(uint256 => uint256) private _totalSupply;\n\n    constructor()\n        ERC1155(\n            \"https://campfire-nft.fra1.digitaloceanspaces.com/metadata/{id}.json\"\n        )\n    {}\n\n    // function mint(\n    //     address account,\n    //     uint256 id,\n    //     uint256 amount\n    // ) public onlyOwner {\n    //     _mint(account, id, amount, \"\");\n    // }\n\n    function mintBranch(address account) public {\n        _mint(account, BRANCH, 1, \"\");\n        _totalSupply[BRANCH] += 1;\n    }\n\n    function burn(\n        address account,\n        uint256 id,\n        uint256 amount\n    ) public {\n        require(msg.sender == account);\n        _burn(account, id, amount);\n        _totalSupply[BRANCH] -= 1;\n    }\n\n    /* add function for tracking the total supply */\n    function totalSupply(uint256 tokenId) public view returns (uint256) {\n        return _totalSupply[tokenId];\n    }\n\n    /*\n        name + symbol are no ERC1155 standard, but included for automatic\n        marketplace metadata discovery\n    */\n    function name() public pure returns (string memory) {\n        return \"CampfireNFT\";\n    }\n\n    function symbol() public pure returns (string memory) {\n        return \"CAMPNFT\";\n    }\n}\n",
  "sourcePath": "/Users/chris/code/crypto/campfire_nft/truffle/contracts/CampfireNFT.sol",
  "compiler": {
    "name": "solc",
    "version": "0.8.9+commit.e5eed63a.Emscripten.clang"
  },
  "schemaVersion": "3.4.3",
  "updatedAt": "2021-10-30T15:52:17.641Z",
  "networkType": "ethereum",
  "devdoc": {
    "kind": "dev",
    "methods": {
      "balanceOf(address,uint256)": {
        "details": "See {IERC1155-balanceOf}. Requirements: - `account` cannot be the zero address."
      },
      "balanceOfBatch(address[],uint256[])": {
        "details": "See {IERC1155-balanceOfBatch}. Requirements: - `accounts` and `ids` must have the same length."
      },
      "isApprovedForAll(address,address)": {
        "details": "See {IERC1155-isApprovedForAll}."
      },
      "owner()": {
        "details": "Returns the address of the current owner."
      },
      "renounceOwnership()": {
        "details": "Leaves the contract without owner. It will not be possible to call `onlyOwner` functions anymore. Can only be called by the current owner. NOTE: Renouncing ownership will leave the contract without an owner, thereby removing any functionality that is only available to the owner."
      },
      "safeBatchTransferFrom(address,address,uint256[],uint256[],bytes)": {
        "details": "See {IERC1155-safeBatchTransferFrom}."
      },
      "safeTransferFrom(address,address,uint256,uint256,bytes)": {
        "details": "See {IERC1155-safeTransferFrom}."
      },
      "setApprovalForAll(address,bool)": {
        "details": "See {IERC1155-setApprovalForAll}."
      },
      "supportsInterface(bytes4)": {
        "details": "See {IERC165-supportsInterface}."
      },
      "transferOwnership(address)": {
        "details": "Transfers ownership of the contract to a new account (`newOwner`). Can only be called by the current owner."
      },
      "uri(uint256)": {
        "details": "See {IERC1155MetadataURI-uri}. This implementation returns the same URI for *all* token types. It relies on the token type ID substitution mechanism https://eips.ethereum.org/EIPS/eip-1155#metadata[defined in the EIP]. Clients calling this function must replace the `\\{id\\}` substring with the actual token type ID."
      }
    },
    "version": 1
  },
  "userdoc": {
    "kind": "user",
    "methods": {},
    "version": 1
  }
}